{
  "address": "0xA28040417C6D998Bd4F276333a91877F66E943aB",
  "abi": [
    {
      "anonymous": false,
      "inputs": [
        {
          "indexed": true,
          "internalType": "address",
          "name": "creator",
          "type": "address"
        },
        {
          "indexed": false,
          "internalType": "address",
          "name": "nftContract",
          "type": "address"
        },
        {
          "indexed": false,
          "internalType": "address",
          "name": "vault",
          "type": "address"
        },
        {
          "indexed": false,
          "internalType": "string",
          "name": "name",
          "type": "string"
        },
        {
          "indexed": false,
          "internalType": "string",
          "name": "symbol",
          "type": "string"
        }
      ],
      "name": "MusicNFTSystemDeployed",
      "type": "event"
    },
    {
      "inputs": [
        {
          "internalType": "string",
          "name": "name",
          "type": "string"
        },
        {
          "internalType": "string",
          "name": "symbol",
          "type": "string"
        },
        {
          "internalType": "string",
          "name": "baseURI",
          "type": "string"
        }
      ],
      "name": "deployMusicNFTSystem",
      "outputs": [
        {
          "internalType": "address",
          "name": "nftContract",
          "type": "address"
        },
        {
          "internalType": "address",
          "name": "vault",
          "type": "address"
        }
      ],
      "stateMutability": "nonpayable",
      "type": "function"
    },
    {
      "inputs": [
        {
          "internalType": "address",
          "name": "",
          "type": "address"
        },
        {
          "internalType": "uint256",
          "name": "",
          "type": "uint256"
        }
      ],
      "name": "deployedSystems",
      "outputs": [
        {
          "internalType": "address",
          "name": "nftContract",
          "type": "address"
        },
        {
          "internalType": "address",
          "name": "vault",
          "type": "address"
        },
        {
          "internalType": "uint256",
          "name": "timestamp",
          "type": "uint256"
        }
      ],
      "stateMutability": "view",
      "type": "function"
    },
    {
      "inputs": [
        {
          "internalType": "address",
          "name": "user",
          "type": "address"
        }
      ],
      "name": "getDeployedSystems",
      "outputs": [
        {
          "components": [
            {
              "internalType": "address",
              "name": "nftContract",
              "type": "address"
            },
            {
              "internalType": "address",
              "name": "vault",
              "type": "address"
            },
            {
              "internalType": "uint256",
              "name": "timestamp",
              "type": "uint256"
            }
          ],
          "internalType": "struct MusicNFTFactory.DeployedSystem[]",
          "name": "",
          "type": "tuple[]"
        }
      ],
      "stateMutability": "view",
      "type": "function"
    },
    {
      "inputs": [
        {
          "internalType": "address",
          "name": "user",
          "type": "address"
        }
      ],
      "name": "getDeployedSystemsCount",
      "outputs": [
        {
          "internalType": "uint256",
          "name": "",
          "type": "uint256"
        }
      ],
      "stateMutability": "view",
      "type": "function"
    }
  ],
  "transactionHash": "0x65e4ab82ffa017a895ce158ca7be60c89579c4b275dbb254a1b62c4a94e5e1f1",
  "args": [],
  "numDeployments": 1,
  "solcInputHash": "c9fb06739d01146d2b9fa445348422ab",
  "bytecode": "0x608060405234801561001057600080fd5b50615434806100206000396000f3fe60806040523480156200001157600080fd5b5060043610620000525760003560e01c806339c12afd14620000575780637eddf36d1462000096578063d7b4e72214620000bc578063f4605ea314620000f4575b600080fd5b620000836200006836600462000458565b6001600160a01b031660009081526020819052604090205490565b6040519081526020015b60405180910390f35b620000ad620000a736600462000458565b62000132565b6040516200008d91906200047d565b620000d3620000cd3660046200058f565b620001cf565b604080516001600160a01b039384168152929091166020830152016200008d565b6200010b6200010536600462000621565b620003d1565b604080516001600160a01b039485168152939092166020840152908201526060016200008d565b6001600160a01b038116600090815260208181526040808320805482518185028101850190935280835260609492939192909184015b82821015620001c4576000848152602090819020604080516060810182526003860290920180546001600160a01b0390811684526001808301549091168486015260029091015491830191909152908352909201910162000168565b505050509050919050565b6000806000604051620001e2906200041f565b6001600160a01b039091168152602001604051809103906000f0801580156200020f573d6000803e3d6000fd5b50905084848460405162000223906200042d565b620002319392919062000696565b604051809103906000f0801580156200024e573d6000803e3d6000fd5b5060405163f2fde38b60e01b81523360048201529092506001600160a01b0382169063f2fde38b90602401600060405180830381600087803b1580156200029457600080fd5b505af1158015620002a9573d6000803e3d6000fd5b505060405163f2fde38b60e01b81523360048201526001600160a01b038516925063f2fde38b9150602401600060405180830381600087803b158015620002ef57600080fd5b505af115801562000304573d6000803e3d6000fd5b50503360008181526020818152604080832081516060810183526001600160a01b038a8116825289811682860190815242838601908152845460018181018755958952969097209251600390960290920180549582166001600160a01b0319968716178155915192820180549390911692909416919091179092559151600290910155519092507fd32cacde3f4023023e5c5a902ded72f1e0448c94eeaf241214ad50fd3d7d98869150620003c190859085908a908a90620006df565b60405180910390a2935093915050565b60006020528160005260406000208181548110620003ee57600080fd5b60009182526020909120600390910201805460018201546002909201546001600160a01b0391821694509116915083565b611cd2806200072d83390190565b61300080620023ff83390190565b80356001600160a01b03811681146200045357600080fd5b919050565b6000602082840312156200046b57600080fd5b62000476826200043b565b9392505050565b602080825282518282018190526000919060409081850190868401855b82811015620004d757815180516001600160a01b03908116865287820151168786015285015185850152606090930192908501906001016200049a565b5091979650505050505050565b634e487b7160e01b600052604160045260246000fd5b600082601f8301126200050c57600080fd5b813567ffffffffffffffff808211156200052a576200052a620004e4565b604051601f8301601f19908116603f01168101908282118183101715620005555762000555620004e4565b816040528381528660208588010111156200056f57600080fd5b836020870160208301376000602085830101528094505050505092915050565b600080600060608486031215620005a557600080fd5b833567ffffffffffffffff80821115620005be57600080fd5b620005cc87838801620004fa565b94506020860135915080821115620005e357600080fd5b620005f187838801620004fa565b935060408601359150808211156200060857600080fd5b506200061786828701620004fa565b9150509250925092565b600080604083850312156200063557600080fd5b62000640836200043b565b946020939093013593505050565b6000815180845260005b81811015620006765760208185018101518683018201520162000658565b506000602082860101526020601f19601f83011685010191505092915050565b606081526000620006ab60608301866200064e565b8281036020840152620006bf81866200064e565b90508281036040840152620006d581856200064e565b9695505050505050565b6001600160a01b038581168252841660208201526080604082018190526000906200070d908301856200064e565b82810360608401526200072181856200064e565b97965050505050505056fe60806040523480156200001157600080fd5b5060405162001cd238038062001cd2833981016040819052620000349162000118565b33806200005b57604051631e4fbdf760e01b81526000600482015260240160405180910390fd5b6200006681620000c8565b506001808055600680546001600160a01b0319166001600160a01b0393909316929092179091556000805260076020527f6d5257204ebe7d88fd91ae87941cb2dd9d8062b64ae5a2bd2d28ec40b9fbf6df805460ff191690911790556200014a565b600080546001600160a01b038381166001600160a01b0319831681178455604051919092169283917f8be0079c531659141344cd1fd0a4f28419497f9722a3daafe3b4186f6b6457e09190a35050565b6000602082840312156200012b57600080fd5b81516001600160a01b03811681146200014357600080fd5b9392505050565b611b78806200015a6000396000f3fe6080604052600436106101025760003560e01c8063909db46d11610095578063e2ca3f5511610064578063e2ca3f5514610307578063e75f7ddb1461031a578063e798646614610349578063efded14714610369578063f2fde38b1461038b57600080fd5b8063909db46d146102775780639e98554f146102b1578063c0c7d092146102d1578063d56d229d146102e757600080fd5b806368c4ac26116100d157806368c4ac26146101da578063715018a61461021a5780638099c2791461022f5780638da5cb5b1461024557600080fd5b806301c788651461010e5780631d833fb41461013057806322d0bef5146101505780634bda1d381461018357600080fd5b3661010957005b600080fd5b34801561011a57600080fd5b5061012e61012936600461159f565b6103ab565b005b34801561013c57600080fd5b5061012e61014b36600461166e565b61062d565b34801561015c57600080fd5b5061017061016b3660046116c5565b610854565b6040519081526020015b60405180910390f35b34801561018f57600080fd5b506101bf61019e366004611701565b60056020526000908152604090208054600182015460029092015490919083565b6040805193845260208401929092529082015260600161017a565b3480156101e657600080fd5b5061020a6101f536600461171a565b60076020526000908152604090205460ff1681565b604051901515815260200161017a565b34801561022657600080fd5b5061012e610b46565b34801561023b57600080fd5b5061017060045481565b34801561025157600080fd5b506000546001600160a01b03165b6040516001600160a01b03909116815260200161017a565b34801561028357600080fd5b506101bf610292366004611701565b6000908152600560205260409020805460018201546002909201549092565b3480156102bd57600080fd5b5061012e6102cc36600461159f565b610b5a565b3480156102dd57600080fd5b5061017060035481565b3480156102f357600080fd5b5060065461025f906001600160a01b031681565b61012e610315366004611735565b610dfe565b34801561032657600080fd5b5061033a610335366004611701565b610f8e565b60405161017a939291906117e6565b34801561035557600080fd5b5061012e610364366004611824565b611057565b34801561037557600080fd5b5061037e61108a565b60405161017a919061185b565b34801561039757600080fd5b5061012e6103a636600461171a565b61119b565b6103b36111d9565b60006103be33611203565b600254909150811061040b5760405162461bcd60e51b81526020600482015260116024820152702737ba1030903a32b0b69036b2b6b132b960791b60448201526064015b60405180910390fd5b600060028281548110610420576104206118e3565b90600052602060002090600302016040518060600160405290816000820160009054906101000a90046001600160a01b03166001600160a01b03166001600160a01b0316815260200160018201548152602001600282018054610482906118f9565b80601f01602080910402602001604051908101604052809291908181526020018280546104ae906118f9565b80156104fb5780601f106104d0576101008083540402835291602001916104fb565b820191906000526020600020905b8154815290600101906020018083116104de57829003601f168201915b505050919092525050506000858152600560209081526040822090830151815493945090926127109161052d91611949565b6105379190611960565b3360009081526003840160205260408120549192506105568284611982565b90506000811161059b5760405162461bcd60e51b815260206004820152601060248201526f4e6f7468696e6720746f20636c61696d60801b6044820152606401610402565b33600090815260038501602052604081208490556001850180548392906105c3908490611995565b909155506105d4905087338361126f565b604080516001600160a01b038916815260208101839052899133917fb8bf6f32bf7a488c04b5e5caca227daad3574ec9aae29bef6239adb4c1390f12910160405180910390a350505050505061062960018055565b5050565b6106356112d2565b6001600160a01b03831661067d5760405162461bcd60e51b815260206004820152600f60248201526e496e76616c6964206164647265737360881b6044820152606401610402565b600082116106c45760405162461bcd60e51b8152602060048201526014602482015273496e76616c696420626173697320706f696e747360601b6044820152606401610402565b612710826003546106d59190611995565b11156107125760405162461bcd60e51b815260206004820152600c60248201526b45786365656473203130302560a01b6044820152606401610402565b604080516060810182526001600160a01b038581168252602082018581529282018481526002805460018101825560009190915283517f405787fa12a823e0f2b7631cc41b3ba8828b3321ca811111fa75cd3aa3bb5ace600390920291820180546001600160a01b0319169190941617835593517f405787fa12a823e0f2b7631cc41b3ba8828b3321ca811111fa75cd3aa3bb5acf85015551919290917f405787fa12a823e0f2b7631cc41b3ba8828b3321ca811111fa75cd3aa3bb5ad0909101906107de90826119f6565b50505081600360008282546107f39190611995565b909155505060035461080790612710611982565b6004556040516001600160a01b038416907f730e9e286c087db612ce57f4d5358c3ff01e9e890685ce2caadea0c06a1481bb906108479085908590611ab6565b60405180910390a2505050565b60008281526005602052604081208161086c86611203565b6002549091508110156109ca5760006002828154811061088e5761088e6118e3565b90600052602060002090600302016040518060600160405290816000820160009054906101000a90046001600160a01b03166001600160a01b03166001600160a01b03168152602001600182015481526020016002820180546108f0906118f9565b80601f016020809104026020016040519081016040528092919081815260200182805461091c906118f9565b80156109695780601f1061093e57610100808354040283529160200191610969565b820191906000526020600020905b81548152906001019060200180831161094c57829003601f168201915b505050505081525050905060006127108260200151856000015461098d9190611949565b6109979190611960565b6001600160a01b03891660009081526003860160205260409020549091506109bf9082611982565b945050505050610b3f565b6006546040516370a0823160e01b81526001600160a01b03888116600483015260009216906370a0823190602401602060405180830381865afa158015610a15573d6000803e3d6000fd5b505050506040513d601f19601f82011682018060405250810190610a399190611ad7565b905080600003610a4f5760009350505050610b3f565b600654604080516318160ddd60e01b815290516000926001600160a01b0316916318160ddd9160048083019260209291908290030181865afa158015610a99573d6000803e3d6000fd5b505050506040513d601f19601f82011682018060405250810190610abd9190611ad7565b905080600003610ad4576000945050505050610b3f565b60006127106004548660000154610aeb9190611949565b610af59190611960565b9050600082610b048584611949565b610b0e9190611960565b6001600160a01b038b166000908152600388016020526040902054909150610b369082611982565b96505050505050505b9392505050565b610b4e6112d2565b610b5860006112ff565b565b610b626111d9565b6006546040516370a0823160e01b81523360048201526000916001600160a01b0316906370a0823190602401602060405180830381865afa158015610bab573d6000803e3d6000fd5b505050506040513d601f19601f82011682018060405250810190610bcf9190611ad7565b905060008111610c125760405162461bcd60e51b815260206004820152600e60248201526d139bc81d1bdad95b9cc81a195b1960921b6044820152606401610402565b600654604080516318160ddd60e01b815290516000926001600160a01b0316916318160ddd9160048083019260209291908290030181865afa158015610c5c573d6000803e3d6000fd5b505050506040513d601f19601f82011682018060405250810190610c809190611ad7565b905060008111610cc55760405162461bcd60e51b815260206004820152601060248201526f139bc81d1bdad95b9cc81b5a5b9d195960821b6044820152606401610402565b6000848152600560205260408120600454815491929161271091610ce891611949565b610cf29190611960565b9050600083610d018684611949565b610d0b9190611960565b336000908152600385016020526040812054919250610d2a8284611982565b905060008111610d6f5760405162461bcd60e51b815260206004820152601060248201526f4e6f7468696e6720746f20636c61696d60801b6044820152606401610402565b3360009081526003860160205260408120849055600286018054839290610d97908490611995565b90915550610da8905088338361126f565b604080516001600160a01b038a168152602081018390528a9133917fe0e4bf2fd2ffe44233c58673286f1035ea091966e9300fd7d8c510550e7bb754910160405180910390a35050505050505061062960018055565b6006546001600160a01b0316331480610e2157506000546001600160a01b031633145b610e5c5760405162461bcd60e51b815260206004820152600c60248201526b155b985d5d1a1bdc9a5e995960a21b6044820152606401610402565b6001600160a01b03831660009081526007602052604090205460ff16610eba5760405162461bcd60e51b8152602060048201526013602482015272151bdad95b881b9bdd081cdd5c1c1bdc9d1959606a1b6044820152606401610402565b6001600160a01b038316610f1257813414610f0d5760405162461bcd60e51b815260206004820152601360248201527208aa89040c2dadeeadce840dad2e6dac2e8c6d606b1b6044820152606401610402565b610f27565b610f276001600160a01b03841633308561134f565b60008481526005602052604081208054849290610f45908490611995565b92505081905550837f6974864b35253d04cffa371b2b99ff1dd701c0c7b3eba4a026efbf0148f5039b848484604051610f80939291906117e6565b60405180910390a250505050565b60028181548110610f9e57600080fd5b60009182526020909120600390910201805460018201546002830180546001600160a01b039093169450909291610fd4906118f9565b80601f0160208091040260200160405190810160405280929190818152602001828054611000906118f9565b801561104d5780601f106110225761010080835404028352916020019161104d565b820191906000526020600020905b81548152906001019060200180831161103057829003601f168201915b5050505050905083565b61105f6112d2565b6001600160a01b03919091166000908152600760205260409020805460ff1916911515919091179055565b60606002805480602002602001604051908101604052809291908181526020016000905b82821015611192576000848152602090819020604080516060810182526003860290920180546001600160a01b0316835260018101549383019390935260028301805492939291840191611101906118f9565b80601f016020809104026020016040519081016040528092919081815260200182805461112d906118f9565b801561117a5780601f1061114f5761010080835404028352916020019161117a565b820191906000526020600020905b81548152906001019060200180831161115d57829003601f168201915b505050505081525050815260200190600101906110ae565b50505050905090565b6111a36112d2565b6001600160a01b0381166111cd57604051631e4fbdf760e01b815260006004820152602401610402565b6111d6816112ff565b50565b6002600154036111fc57604051633ee5aeb560e01b815260040160405180910390fd5b6002600155565b6000805b60025481101561126557826001600160a01b03166002828154811061122e5761122e6118e3565b60009182526020909120600390910201546001600160a01b0316036112535792915050565b8061125d81611af0565b915050611207565b5060001992915050565b6001600160a01b0383166112b9576040516001600160a01b0383169082156108fc029083906000818181858888f193505050501580156112b3573d6000803e3d6000fd5b50505050565b6112cd6001600160a01b03841683836113b6565b505050565b6000546001600160a01b03163314610b585760405163118cdaa760e01b8152336004820152602401610402565b600080546001600160a01b038381166001600160a01b0319831681178455604051919092169283917f8be0079c531659141344cd1fd0a4f28419497f9722a3daafe3b4186f6b6457e09190a35050565b6040516001600160a01b0384811660248301528381166044830152606482018390526112b39186918216906323b872dd906084015b604051602081830303815290604052915060e01b6020820180516001600160e01b0383818316178352505050506113e7565b6040516001600160a01b038381166024830152604482018390526112cd91859182169063a9059cbb90606401611384565b60006113fc6001600160a01b0384168361144a565b9050805160001415801561142157508080602001905181019061141f9190611b09565b155b156112cd57604051635274afe760e01b81526001600160a01b0384166004820152602401610402565b606061145883836000611461565b90505b92915050565b6060814710156114865760405163cd78605960e01b8152306004820152602401610402565b600080856001600160a01b031684866040516114a29190611b26565b60006040518083038185875af1925050503d80600081146114df576040519150601f19603f3d011682016040523d82523d6000602084013e6114e4565b606091505b50915091506114f48683836114fe565b9695505050505050565b6060826115135761150e8261155a565b610b3f565b815115801561152a57506001600160a01b0384163b155b1561155357604051639996b31560e01b81526001600160a01b0385166004820152602401610402565b5080610b3f565b80511561156a5780518082602001fd5b604051630a12f52160e11b815260040160405180910390fd5b80356001600160a01b038116811461159a57600080fd5b919050565b600080604083850312156115b257600080fd5b823591506115c260208401611583565b90509250929050565b634e487b7160e01b600052604160045260246000fd5b600082601f8301126115f257600080fd5b813567ffffffffffffffff8082111561160d5761160d6115cb565b604051601f8301601f19908116603f01168101908282118183101715611635576116356115cb565b8160405283815286602085880101111561164e57600080fd5b836020870160208301376000602085830101528094505050505092915050565b60008060006060848603121561168357600080fd5b61168c84611583565b925060208401359150604084013567ffffffffffffffff8111156116af57600080fd5b6116bb868287016115e1565b9150509250925092565b6000806000606084860312156116da57600080fd5b6116e384611583565b9250602084013591506116f860408501611583565b90509250925092565b60006020828403121561171357600080fd5b5035919050565b60006020828403121561172c57600080fd5b61145882611583565b6000806000806080858703121561174b57600080fd5b8435935061175b60208601611583565b925060408501359150606085013567ffffffffffffffff81111561177e57600080fd5b61178a878288016115e1565b91505092959194509250565b60005b838110156117b1578181015183820152602001611799565b50506000910152565b600081518084526117d2816020860160208601611796565b601f01601f19169290920160200192915050565b60018060a01b038416815282602082015260606040820152600061180d60608301846117ba565b95945050505050565b80151581146111d657600080fd5b6000806040838503121561183757600080fd5b61184083611583565b9150602083013561185081611816565b809150509250929050565b60006020808301818452808551808352604092508286019150828160051b87010184880160005b838110156118d557888303603f19018552815180516001600160a01b03168452878101518885015286015160608785018190526118c1818601836117ba565b968901969450505090860190600101611882565b509098975050505050505050565b634e487b7160e01b600052603260045260246000fd5b600181811c9082168061190d57607f821691505b60208210810361192d57634e487b7160e01b600052602260045260246000fd5b50919050565b634e487b7160e01b600052601160045260246000fd5b808202811582820484141761145b5761145b611933565b60008261197d57634e487b7160e01b600052601260045260246000fd5b500490565b8181038181111561145b5761145b611933565b8082018082111561145b5761145b611933565b601f8211156112cd57600081815260208120601f850160051c810160208610156119cf5750805b601f850160051c820191505b818110156119ee578281556001016119db565b505050505050565b815167ffffffffffffffff811115611a1057611a106115cb565b611a2481611a1e84546118f9565b846119a8565b602080601f831160018114611a595760008415611a415750858301515b600019600386901b1c1916600185901b1785556119ee565b600085815260208120601f198616915b82811015611a8857888601518255948401946001909101908401611a69565b5085821015611aa65787850151600019600388901b60f8161c191681555b5050505050600190811b01905550565b828152604060208201526000611acf60408301846117ba565b949350505050565b600060208284031215611ae957600080fd5b5051919050565b600060018201611b0257611b02611933565b5060010190565b600060208284031215611b1b57600080fd5b8151610b3f81611816565b60008251611b38818460208701611796565b919091019291505056fea26469706673582212206a5514c5632cc69e6b69b5eeb28a80cf750e7a42133ccd23cc267a5f72a3452c64736f6c63430008140033608060405260016013553480156200001657600080fd5b5060405162003000380380620030008339810160408190526200003991620001cb565b33838360006200004a8382620002eb565b506001620000598282620002eb565b5050506001600160a01b0381166200008b57604051631e4fbdf760e01b81526000600482015260240160405180910390fd5b6200009681620000b4565b506001600b556014620000aa8282620002eb565b50505050620003b7565b600a80546001600160a01b038381166001600160a01b0319831681179093556040519116919082907f8be0079c531659141344cd1fd0a4f28419497f9722a3daafe3b4186f6b6457e090600090a35050565b634e487b7160e01b600052604160045260246000fd5b600082601f8301126200012e57600080fd5b81516001600160401b03808211156200014b576200014b62000106565b604051601f8301601f19908116603f0116810190828211818310171562000176576200017662000106565b816040528381526020925086838588010111156200019357600080fd5b600091505b83821015620001b7578582018301518183018401529082019062000198565b600093810190920192909252949350505050565b600080600060608486031215620001e157600080fd5b83516001600160401b0380821115620001f957600080fd5b62000207878388016200011c565b945060208601519150808211156200021e57600080fd5b6200022c878388016200011c565b935060408601519150808211156200024357600080fd5b5062000252868287016200011c565b9150509250925092565b600181811c908216806200027157607f821691505b6020821081036200029257634e487b7160e01b600052602260045260246000fd5b50919050565b601f821115620002e657600081815260208120601f850160051c81016020861015620002c15750805b601f850160051c820191505b81811015620002e257828155600101620002cd565b5050505b505050565b81516001600160401b0381111562000307576200030762000106565b6200031f816200031884546200025c565b8462000298565b602080601f8311600181146200035757600084156200033e5750858301515b600019600386901b1c1916600185901b178555620002e2565b600085815260208120601f198616915b82811015620003885788860151825594840194600190910190840162000367565b5085821015620003a75787850151600019600388901b60f8161c191681555b5050505050600190811b01905550565b612c3980620003c76000396000f3fe6080604052600436106101db5760003560e01c8063715018a611610102578063a22cb46511610095578063e985e9c511610064578063e985e9c514610566578063ee1cc94414610586578063f2113b5a146105a6578063f2fde38b146105bb57600080fd5b8063a22cb465146104f1578063b88d4fde14610511578063c87b56dd14610531578063e4b7fb731461055157600080fd5b80638da5cb5b116100d15780638da5cb5b1461048b57806395ccea67146104a957806395d89b41146104c9578063a0712d68146104de57600080fd5b8063715018a61461042057806375794a3c146104355780637c88e3d91461044b5780638d6cc56d1461046b57600080fd5b80632a55205a1161017a5780634f6ccce7116101495780634f6ccce7146103a057806355f804b3146103c05780636352211e146103e057806370a082311461040057600080fd5b80632a55205a146102f75780632f745c591461033657806342842e0e1461035657806346e55fe81461037657600080fd5b8063081812fc116101b6578063081812fc14610260578063095ea7b31461029857806318160ddd146102b857806323b872dd146102d757600080fd5b8062ec86e5146101e757806301ffc9a71461020957806306fdde031461023e57600080fd5b366101e257005b600080fd5b3480156101f357600080fd5b50610207610202366004612333565b6105db565b005b34801561021557600080fd5b50610229610224366004612417565b61086c565b60405190151581526020015b60405180910390f35b34801561024a57600080fd5b50610253610897565b6040516102359190612484565b34801561026c57600080fd5b5061028061027b366004612497565b610929565b6040516001600160a01b039091168152602001610235565b3480156102a457600080fd5b506102076102b33660046124b0565b610952565b3480156102c457600080fd5b506008545b604051908152602001610235565b3480156102e357600080fd5b506102076102f23660046124da565b610961565b34801561030357600080fd5b50610317610312366004612516565b6109ec565b604080516001600160a01b039093168352602083019190915201610235565b34801561034257600080fd5b506102c96103513660046124b0565b610a8a565b34801561036257600080fd5b506102076103713660046124da565b610aef565b34801561038257600080fd5b5061038b610b0f565b60405161023599989796959493929190612538565b3480156103ac57600080fd5b506102c96103bb366004612497565b610cfd565b3480156103cc57600080fd5b506102076103db3660046125bf565b610d56565b3480156103ec57600080fd5b506102806103fb366004612497565b610d6a565b34801561040c57600080fd5b506102c961041b3660046125fc565b610d75565b34801561042c57600080fd5b50610207610dbd565b34801561044157600080fd5b506102c960135481565b34801561045757600080fd5b506102076104663660046126a6565b610dd1565b34801561047757600080fd5b50610207610486366004612497565b610fb6565b34801561049757600080fd5b50600a546001600160a01b0316610280565b3480156104b557600080fd5b506102076104c43660046124b0565b611019565b3480156104d557600080fd5b5061025361108f565b6102076104ec366004612497565b61109e565b3480156104fd57600080fd5b5061020761050c366004612774565b61131c565b34801561051d57600080fd5b5061020761052c3660046127ab565b611327565b34801561053d57600080fd5b5061025361054c366004612497565b61133e565b34801561055d57600080fd5b506102c96113c3565b34801561057257600080fd5b50610229610581366004612827565b6113e6565b34801561059257600080fd5b506102076105a136600461285a565b611414565b3480156105b257600080fd5b506102c9611490565b3480156105c757600080fd5b506102076105d63660046125fc565b6114a1565b6105e36114dc565b600c80546105f090612877565b15905061063d5760405162461bcd60e51b8152602060048201526016602482015275135d5cda58c81a5b999bc8185b1c9958591e481cd95d60521b60448201526064015b60405180910390fd5b600085116106865760405162461bcd60e51b815260206004820152601660248201527504d617820737570706c79206d757374206265203e20360541b6044820152606401610634565b6103e8826001600160601b031611156106d45760405162461bcd60e51b815260206004820152601060248201526f0a4def2c2d8e8f240e8dede40d0d2ced60831b6044820152606401610634565b6001600160a01b0381166107225760405162461bcd60e51b8152602060048201526015602482015274496e76616c6964207661756c74206164647265737360581b6044820152606401610634565b60408051610120810182528981526020810189905290810187905260608101869052608081018590526001600160a01b0380851660a08301526001600160601b03841660c0830152821660e08201526001610100820152600c806107868b826128ff565b506020820151600182019061079b90826128ff565b50604082015160028201906107b090826128ff565b50606082015160038201556080820151600482015560a082015160c08301516001600160a01b03918216600160a01b6001600160601b03909216820217600584015560e08401516006909301805461010090950151939092166001600160a81b0319909416939093179115159092021790556040517f27be0f7cc661c634dbaf5b615c92bc9ed558815a55496acb8bd6b0325dee3e929061085a908a908a908990899089906129bf565b60405180910390a15050505050505050565b60006001600160e01b0319821663152a902d60e11b1480610891575061089182611509565b92915050565b6060600080546108a690612877565b80601f01602080910402602001604051908101604052809291908181526020018280546108d290612877565b801561091f5780601f106108f45761010080835404028352916020019161091f565b820191906000526020600020905b81548152906001019060200180831161090257829003601f168201915b5050505050905090565b60006109348261152e565b506000828152600460205260409020546001600160a01b0316610891565b61095d828233611567565b5050565b6001600160a01b03821661098b57604051633250574960e11b815260006004820152602401610634565b6000610998838333611574565b9050836001600160a01b0316816001600160a01b0316146109e6576040516364283d7b60e01b81526001600160a01b0380861660048301526024820184905282166044820152606401610634565b50505050565b60008281526002602052604081205481906001600160a01b0316610a455760405162461bcd60e51b815260206004820152601060248201526f546f6b656e206e6f742065786973747360801b6044820152606401610634565b60115460009061271090610a6990600160a01b90046001600160601b031686612a21565b610a739190612a38565b6012546001600160a01b0316969095509350505050565b6000610a9583610d75565b8210610ac65760405163295f44f760e21b81526001600160a01b038416600482015260248101839052604401610634565b506001600160a01b03919091166000908152600660209081526040808320938352929052205490565b610b0a83838360405180602001604052806000815250611327565b505050565b600c80548190610b1e90612877565b80601f0160208091040260200160405190810160405280929190818152602001828054610b4a90612877565b8015610b975780601f10610b6c57610100808354040283529160200191610b97565b820191906000526020600020905b815481529060010190602001808311610b7a57829003601f168201915b505050505090806001018054610bac90612877565b80601f0160208091040260200160405190810160405280929190818152602001828054610bd890612877565b8015610c255780601f10610bfa57610100808354040283529160200191610c25565b820191906000526020600020905b815481529060010190602001808311610c0857829003601f168201915b505050505090806002018054610c3a90612877565b80601f0160208091040260200160405190810160405280929190818152602001828054610c6690612877565b8015610cb35780601f10610c8857610100808354040283529160200191610cb3565b820191906000526020600020905b815481529060010190602001808311610c9657829003601f168201915b50505050600383015460048401546005850154600690950154939491939092506001600160a01b0380831692600160a01b908190046001600160601b031692918216910460ff1689565b6000610d0860085490565b8210610d315760405163295f44f760e21b81526000600482015260248101839052604401610634565b60088281548110610d4457610d44612a5a565b90600052602060002001549050919050565b610d5e6114dc565b601461095d82826128ff565b60006108918261152e565b60006001600160a01b038216610da1576040516322718ad960e21b815260006004820152602401610634565b506001600160a01b031660009081526003602052604090205490565b610dc56114dc565b610dcf600061158b565b565b610dd96114dc565b8051825114610e235760405162461bcd60e51b8152602060048201526016602482015275082e4e4c2f2e640d8cadccee8d040dad2e6dac2e8c6d60531b6044820152606401610634565b601254600160a01b900460ff16610e715760405162461bcd60e51b81526020600482015260126024820152714d696e74696e67206e6f742061637469766560701b6044820152606401610634565b6000805b8251811015610eb757828181518110610e9057610e90612a5a565b602002602001015182610ea39190612a70565b915080610eaf81612a83565b915050610e75565b50600f54601354600190610ecc908490612a70565b610ed69190612a9c565b1115610f195760405162461bcd60e51b815260206004820152601260248201527145786365656473206d617820737570706c7960701b6044820152606401610634565b60005b83518110156109e6576000848281518110610f3957610f39612a5a565b602002602001015190506000848381518110610f5757610f57612a5a565b6020026020010151905060005b81811015610fa0576013805460009182610f7d83612a83565b919050559050610f8d84826115dd565b5080610f9881612a83565b915050610f64565b5050508080610fae90612a83565b915050610f1c565b610fbe6114dc565b6000600c6000018054610fd090612877565b9050116110145760405162461bcd60e51b8152602060048201526012602482015271135d5cda58c81a5b999bc81b9bdd081cd95d60721b6044820152606401610634565b601055565b6110216114dc565b6001600160a01b03821661106957600a546040516001600160a01b039091169082156108fc029083906000818181858888f19350505050158015610b0a573d6000803e3d6000fd5b61095d61107e600a546001600160a01b031690565b6001600160a01b03841690836115f7565b6060600180546108a690612877565b6110a6611656565b601254600160a01b900460ff166110f45760405162461bcd60e51b81526020600482015260126024820152714d696e74696e67206e6f742061637469766560701b6044820152606401610634565b6000811161113b5760405162461bcd60e51b815260206004820152601460248201527305175616e74697479206d757374206265203e20360641b6044820152606401610634565b600f5460135460019061114f908490612a70565b6111599190612a9c565b111561119c5760405162461bcd60e51b815260206004820152601260248201527145786365656473206d617820737570706c7960701b6044820152606401610634565b6010546000906111ad908390612a21565b6011549091506001600160a01b031661124857803410156112035760405162461bcd60e51b815260206004820152601060248201526f092dce6eaccccd2c6d2cadce8408aa8960831b6044820152606401610634565b8034111561124357336108fc6112198334612a9c565b6040518115909202916000818181858888f19350505050158015611241573d6000803e3d6000fd5b505b611260565b601154611260906001600160a01b0316333084611680565b60135460005b838110156112a257601380546000918261127f83612a83565b91905055905061128f33826115dd565b508061129a81612a83565b915050611266565b506011546040805180820190915260048152631b5a5b9d60e21b60208201526112d6916001600160a01b03169084906116b9565b604051838152339082907f2d03118aa776f7008445f6ca8490a6782ede2db364d741513555ba656ab1879f9060200160405180910390a350506113196001600b55565b50565b61095d3383836117bf565b611332848484610961565b6109e68484848461185e565b6000818152600260205260409020546060906001600160a01b03166113985760405162461bcd60e51b815260206004820152601060248201526f546f6b656e206e6f742065786973747360801b6044820152606401610634565b6040516113ad90601490600e90602001612b22565b6040516020818303038152906040529050919050565b600060016013546113d49190612a9c565b600f546113e19190612a9c565b905090565b6001600160a01b03918216600090815260056020908152604080832093909416825291909152205460ff1690565b61141c6114dc565b6000600c600001805461142e90612877565b9050116114725760405162461bcd60e51b8152602060048201526012602482015271135d5cda58c81a5b999bc81b9bdd081cd95d60721b6044820152606401610634565b60128054911515600160a01b0260ff60a01b19909216919091179055565b600060016013546113e19190612a9c565b6114a96114dc565b6001600160a01b0381166114d357604051631e4fbdf760e01b815260006004820152602401610634565b6113198161158b565b600a546001600160a01b03163314610dcf5760405163118cdaa760e01b8152336004820152602401610634565b60006001600160e01b0319821663780e9d6360e01b1480610891575061089182611987565b6000818152600260205260408120546001600160a01b03168061089157604051637e27328960e01b815260048101849052602401610634565b610b0a83838360016119d7565b6000611581848484611add565b90505b9392505050565b600a80546001600160a01b038381166001600160a01b0319831681179093556040519116919082907f8be0079c531659141344cd1fd0a4f28419497f9722a3daafe3b4186f6b6457e090600090a35050565b61095d828260405180602001604052806000815250611baa565b6040516001600160a01b03838116602483015260448201839052610b0a91859182169063a9059cbb906064015b604051602081830303815290604052915060e01b6020820180516001600160e01b038381831617835250505050611bc1565b6002600b540361167957604051633ee5aeb560e01b815260040160405180910390fd5b6002600b55565b6040516001600160a01b0384811660248301528381166044830152606482018390526109e69186918216906323b872dd90608401611624565b6001600160a01b0383166117375760125460405163e2ca3f5560e01b81526001600160a01b039091169063e2ca3f5590849061170090600190889084908890600401612b37565b6000604051808303818588803b15801561171957600080fd5b505af115801561172d573d6000803e3d6000fd5b5050505050505050565b601254611751906001600160a01b03858116911684611c24565b60125460405163e2ca3f5560e01b81526001600160a01b039091169063e2ca3f559061178890600190879087908790600401612b37565b600060405180830381600087803b1580156117a257600080fd5b505af11580156117b6573d6000803e3d6000fd5b50505050505050565b6001600160a01b0382166117f157604051630b61174360e31b81526001600160a01b0383166004820152602401610634565b6001600160a01b03838116600081815260056020908152604080832094871680845294825291829020805460ff191686151590811790915591519182527f17307eab39ab6107e8899845ad3d59bd9653f200f220920489ca2b5937696c31910160405180910390a3505050565b6001600160a01b0383163b156109e657604051630a85bd0160e11b81526001600160a01b0384169063150b7a02906118a0903390889087908790600401612b64565b6020604051808303816000875af19250505080156118db575060408051601f3d908101601f191682019092526118d891810190612b97565b60015b611944573d808015611909576040519150601f19603f3d011682016040523d82523d6000602084013e61190e565b606091505b50805160000361193c57604051633250574960e11b81526001600160a01b0385166004820152602401610634565b805181602001fd5b6001600160e01b03198116630a85bd0160e11b1461198057604051633250574960e11b81526001600160a01b0385166004820152602401610634565b5050505050565b60006001600160e01b031982166380ac58cd60e01b14806119b857506001600160e01b03198216635b5e139f60e01b145b8061089157506301ffc9a760e01b6001600160e01b0319831614610891565b80806119eb57506001600160a01b03821615155b15611aad5760006119fb8461152e565b90506001600160a01b03831615801590611a275750826001600160a01b0316816001600160a01b031614155b8015611a3a5750611a3881846113e6565b155b15611a635760405163a9fbf51f60e01b81526001600160a01b0384166004820152602401610634565b8115611aab5783856001600160a01b0316826001600160a01b03167f8c5be1e5ebec7d5bd14f71427d1e84f3dd0314c0f7b2291e5b200ac8c7c3b92560405160405180910390a45b505b5050600090815260046020526040902080546001600160a01b0319166001600160a01b0392909216919091179055565b600080611aeb858585611cb4565b90506001600160a01b038116611b4857611b4384600880546000838152600960205260408120829055600182018355919091527ff3f7a9fe364faab93b216da50a3214154f22a0a2b415b23a84c8169e8b636ee30155565b611b6b565b846001600160a01b0316816001600160a01b031614611b6b57611b6b8185611dad565b6001600160a01b038516611b8757611b8284611e3e565b611581565b846001600160a01b0316816001600160a01b031614611581576115818585611eed565b611bb48383611f3d565b610b0a600084848461185e565b6000611bd66001600160a01b03841683611fa2565b90508051600014158015611bfb575080806020019051810190611bf99190612bb4565b155b15610b0a57604051635274afe760e01b81526001600160a01b0384166004820152602401610634565b604080516001600160a01b038416602482015260448082018490528251808303909101815260649091019091526020810180516001600160e01b031663095ea7b360e01b179052611c758482611fb0565b6109e6576040516001600160a01b03848116602483015260006044830152611caa91869182169063095ea7b390606401611624565b6109e68482611bc1565b6000828152600260205260408120546001600160a01b0390811690831615611ce157611ce1818486612058565b6001600160a01b03811615611d1f57611cfe6000856000806119d7565b6001600160a01b038116600090815260036020526040902080546000190190555b6001600160a01b03851615611d4e576001600160a01b0385166000908152600360205260409020805460010190555b60008481526002602052604080822080546001600160a01b0319166001600160a01b0389811691821790925591518793918516917fddf252ad1be2c89b69c2b068fc378daa952ba7f163c4a11628f55a4df523b3ef91a4949350505050565b6000611db883610d75565b600083815260076020526040902054909150808214611e0b576001600160a01b03841660009081526006602090815260408083208584528252808320548484528184208190558352600790915290208190555b5060009182526007602090815260408084208490556001600160a01b039094168352600681528383209183525290812055565b600854600090611e5090600190612a9c565b60008381526009602052604081205460088054939450909284908110611e7857611e78612a5a565b906000526020600020015490508060088381548110611e9957611e99612a5a565b6000918252602080832090910192909255828152600990915260408082208490558582528120556008805480611ed157611ed1612bd1565b6001900381819060005260206000200160009055905550505050565b60006001611efa84610d75565b611f049190612a9c565b6001600160a01b039093166000908152600660209081526040808320868452825280832085905593825260079052919091209190915550565b6001600160a01b038216611f6757604051633250574960e11b815260006004820152602401610634565b6000611f7583836000611574565b90506001600160a01b03811615610b0a576040516339e3563760e11b815260006004820152602401610634565b6060611584838360006120bc565b6000806000846001600160a01b031684604051611fcd9190612be7565b6000604051808303816000865af19150503d806000811461200a576040519150601f19603f3d011682016040523d82523d6000602084013e61200f565b606091505b50915091508180156120395750805115806120395750808060200190518101906120399190612bb4565b801561204f57506000856001600160a01b03163b115b95945050505050565b612063838383612159565b610b0a576001600160a01b03831661209157604051637e27328960e01b815260048101829052602401610634565b60405163177e802f60e01b81526001600160a01b038316600482015260248101829052604401610634565b6060814710156120e15760405163cd78605960e01b8152306004820152602401610634565b600080856001600160a01b031684866040516120fd9190612be7565b60006040518083038185875af1925050503d806000811461213a576040519150601f19603f3d011682016040523d82523d6000602084013e61213f565b606091505b509150915061214f8683836121bc565b9695505050505050565b60006001600160a01b038316158015906115815750826001600160a01b0316846001600160a01b03161480612193575061219384846113e6565b806115815750506000908152600460205260409020546001600160a01b03908116911614919050565b6060826121d1576121cc82612218565b611584565b81511580156121e857506001600160a01b0384163b155b1561221157604051639996b31560e01b81526001600160a01b0385166004820152602401610634565b5080611584565b8051156122285780518082602001fd5b604051630a12f52160e11b815260040160405180910390fd5b634e487b7160e01b600052604160045260246000fd5b604051601f8201601f1916810167ffffffffffffffff8111828210171561228057612280612241565b604052919050565b600067ffffffffffffffff8311156122a2576122a2612241565b6122b5601f8401601f1916602001612257565b90508281528383830111156122c957600080fd5b828260208301376000602084830101529392505050565b600082601f8301126122f157600080fd5b61158483833560208501612288565b80356001600160a01b038116811461231757600080fd5b919050565b80356001600160601b038116811461231757600080fd5b600080600080600080600080610100898b03121561235057600080fd5b883567ffffffffffffffff8082111561236857600080fd5b6123748c838d016122e0565b995060208b013591508082111561238a57600080fd5b6123968c838d016122e0565b985060408b01359150808211156123ac57600080fd5b506123b98b828c016122e0565b96505060608901359450608089013593506123d660a08a01612300565b92506123e460c08a0161231c565b91506123f260e08a01612300565b90509295985092959890939650565b6001600160e01b03198116811461131957600080fd5b60006020828403121561242957600080fd5b813561158481612401565b60005b8381101561244f578181015183820152602001612437565b50506000910152565b60008151808452612470816020860160208601612434565b601f01601f19169290920160200192915050565b6020815260006115846020830184612458565b6000602082840312156124a957600080fd5b5035919050565b600080604083850312156124c357600080fd5b6124cc83612300565b946020939093013593505050565b6000806000606084860312156124ef57600080fd5b6124f884612300565b925061250660208501612300565b9150604084013590509250925092565b6000806040838503121561252957600080fd5b50508035926020909101359150565b600061012080835261254c8184018d612458565b90508281036020840152612560818c612458565b90508281036040840152612574818b612458565b6060840199909952505060808101959095526001600160a01b0393841660a08601526001600160601b039290921660c085015290911660e08301521515610100909101529392505050565b6000602082840312156125d157600080fd5b813567ffffffffffffffff8111156125e857600080fd5b6125f4848285016122e0565b949350505050565b60006020828403121561260e57600080fd5b61158482612300565b600067ffffffffffffffff82111561263157612631612241565b5060051b60200190565b600082601f83011261264c57600080fd5b8135602061266161265c83612617565b612257565b82815260059290921b8401810191818101908684111561268057600080fd5b8286015b8481101561269b5780358352918301918301612684565b509695505050505050565b600080604083850312156126b957600080fd5b823567ffffffffffffffff808211156126d157600080fd5b818501915085601f8301126126e557600080fd5b813560206126f561265c83612617565b82815260059290921b8401810191818101908984111561271457600080fd5b948201945b838610156127395761272a86612300565b82529482019490820190612719565b9650508601359250508082111561274f57600080fd5b5061275c8582860161263b565b9150509250929050565b801515811461131957600080fd5b6000806040838503121561278757600080fd5b61279083612300565b915060208301356127a081612766565b809150509250929050565b600080600080608085870312156127c157600080fd5b6127ca85612300565b93506127d860208601612300565b925060408501359150606085013567ffffffffffffffff8111156127fb57600080fd5b8501601f8101871361280c57600080fd5b61281b87823560208401612288565b91505092959194509250565b6000806040838503121561283a57600080fd5b61284383612300565b915061285160208401612300565b90509250929050565b60006020828403121561286c57600080fd5b813561158481612766565b600181811c9082168061288b57607f821691505b6020821081036128ab57634e487b7160e01b600052602260045260246000fd5b50919050565b601f821115610b0a57600081815260208120601f850160051c810160208610156128d85750805b601f850160051c820191505b818110156128f7578281556001016128e4565b505050505050565b815167ffffffffffffffff81111561291957612919612241565b61292d816129278454612877565b846128b1565b602080601f831160018114612962576000841561294a5750858301515b600019600386901b1c1916600185901b1785556128f7565b600085815260208120601f198616915b8281101561299157888601518255948401946001909101908401612972565b50858210156129af5787850151600019600388901b60f8161c191681555b5050505050600190811b01905550565b60a0815260006129d260a0830188612458565b82810360208401526129e48188612458565b6040840196909652505060608101929092526001600160a01b031660809091015292915050565b634e487b7160e01b600052601160045260246000fd5b808202811582820484141761089157610891612a0b565b600082612a5557634e487b7160e01b600052601260045260246000fd5b500490565b634e487b7160e01b600052603260045260246000fd5b8082018082111561089157610891612a0b565b600060018201612a9557612a95612a0b565b5060010190565b8181038181111561089157610891612a0b565b60008154612abc81612877565b60018281168015612ad45760018114612ae957612b18565b60ff1984168752821515830287019450612b18565b8560005260208060002060005b85811015612b0f5781548a820152908401908201612af6565b50505082870194505b5050505092915050565b6000611581612b318386612aaf565b84612aaf565b84815260018060a01b038416602082015282604082015260806060820152600061214f6080830184612458565b6001600160a01b038581168252841660208201526040810183905260806060820181905260009061214f90830184612458565b600060208284031215612ba957600080fd5b815161158481612401565b600060208284031215612bc657600080fd5b815161158481612766565b634e487b7160e01b600052603160045260246000fd5b60008251612bf9818460208701612434565b919091019291505056fea2646970667358221220154e57dd378b6eec355bd140fd93001a6f15d88c4ec22f50d512dad8e0771c0e64736f6c63430008140033a2646970667358221220819c4d575099b9bf70a5abaf5c2ed8f8300e3a802d45103a4d02f696ab655c4264736f6c63430008140033",
  "devdoc": {
    "details": "NFT",
    "kind": "dev",
    "methods": {
      "deployMusicNFTSystem(string,string,string)": {
        "details": "NFT"
      },
      "getDeployedSystems(address)": {
        "details": ""
      },
      "getDeployedSystemsCount(address)": {
        "details": ""
      }
    },
    "title": "MusicNFTFactory",
    "version": 1
  },
  "userdoc": {
    "kind": "user",
    "methods": {},
    "version": 1
  },
  "storageLayout": {
    "storage": [
      {
        "astId": 4880,
        "contract": "contracts/MusicNFTFactory.sol:MusicNFTFactory",
        "label": "deployedSystems",
        "offset": 0,
        "slot": "0",
        "type": "t_mapping(t_address,t_array(t_struct(DeployedSystem)4874_storage)dyn_storage)"
      }
    ],
    "types": {
      "t_address": {
        "encoding": "inplace",
        "label": "address",
        "numberOfBytes": "20"
      },
      "t_array(t_struct(DeployedSystem)4874_storage)dyn_storage": {
        "base": "t_struct(DeployedSystem)4874_storage",
        "encoding": "dynamic_array",
        "label": "struct MusicNFTFactory.DeployedSystem[]",
        "numberOfBytes": "32"
      },
      "t_mapping(t_address,t_array(t_struct(DeployedSystem)4874_storage)dyn_storage)": {
        "encoding": "mapping",
        "key": "t_address",
        "label": "mapping(address => struct MusicNFTFactory.DeployedSystem[])",
        "numberOfBytes": "32",
        "value": "t_array(t_struct(DeployedSystem)4874_storage)dyn_storage"
      },
      "t_struct(DeployedSystem)4874_storage": {
        "encoding": "inplace",
        "label": "struct MusicNFTFactory.DeployedSystem",
        "members": [
          {
            "astId": 4869,
            "contract": "contracts/MusicNFTFactory.sol:MusicNFTFactory",
            "label": "nftContract",
            "offset": 0,
            "slot": "0",
            "type": "t_address"
          },
          {
            "astId": 4871,
            "contract": "contracts/MusicNFTFactory.sol:MusicNFTFactory",
            "label": "vault",
            "offset": 0,
            "slot": "1",
            "type": "t_address"
          },
          {
            "astId": 4873,
            "contract": "contracts/MusicNFTFactory.sol:MusicNFTFactory",
            "label": "timestamp",
            "offset": 0,
            "slot": "2",
            "type": "t_uint256"
          }
        ],
        "numberOfBytes": "96"
      },
      "t_uint256": {
        "encoding": "inplace",
        "label": "uint256",
        "numberOfBytes": "32"
      }
    }
  }
}