{
  "address": "0x41E7C90B3003B584Df3E49aD1A62A93F931aa3C1",
  "abi": [
    {
      "inputs": [
        {
          "internalType": "address",
          "name": "target",
          "type": "address"
        }
      ],
      "name": "AddressEmptyCode",
      "type": "error"
    },
    {
      "inputs": [
        {
          "internalType": "address",
          "name": "account",
          "type": "address"
        }
      ],
      "name": "AddressInsufficientBalance",
      "type": "error"
    },
    {
      "inputs": [],
      "name": "FailedInnerCall",
      "type": "error"
    },
    {
      "inputs": [],
      "name": "ReentrancyGuardReentrantCall",
      "type": "error"
    },
    {
      "inputs": [
        {
          "internalType": "address",
          "name": "token",
          "type": "address"
        }
      ],
      "name": "SafeERC20FailedOperation",
      "type": "error"
    },
    {
      "anonymous": false,
      "inputs": [
        {
          "indexed": true,
          "internalType": "address",
          "name": "nft",
          "type": "address"
        },
        {
          "indexed": true,
          "internalType": "uint256",
          "name": "tokenId",
          "type": "uint256"
        },
        {
          "indexed": true,
          "internalType": "address",
          "name": "seller",
          "type": "address"
        },
        {
          "indexed": false,
          "internalType": "address",
          "name": "currency",
          "type": "address"
        },
        {
          "indexed": false,
          "internalType": "uint256",
          "name": "price",
          "type": "uint256"
        }
      ],
      "name": "Listed",
      "type": "event"
    },
    {
      "anonymous": false,
      "inputs": [
        {
          "indexed": true,
          "internalType": "address",
          "name": "nft",
          "type": "address"
        },
        {
          "indexed": true,
          "internalType": "uint256",
          "name": "tokenId",
          "type": "uint256"
        }
      ],
      "name": "ListingCanceled",
      "type": "event"
    },
    {
      "anonymous": false,
      "inputs": [
        {
          "indexed": true,
          "internalType": "address",
          "name": "nft",
          "type": "address"
        },
        {
          "indexed": true,
          "internalType": "uint256",
          "name": "tokenId",
          "type": "uint256"
        },
        {
          "indexed": false,
          "internalType": "uint256",
          "name": "newPrice",
          "type": "uint256"
        },
        {
          "indexed": false,
          "internalType": "address",
          "name": "newCurrency",
          "type": "address"
        }
      ],
      "name": "ListingUpdated",
      "type": "event"
    },
    {
      "anonymous": false,
      "inputs": [
        {
          "indexed": true,
          "internalType": "address",
          "name": "nft",
          "type": "address"
        },
        {
          "indexed": true,
          "internalType": "uint256",
          "name": "tokenId",
          "type": "uint256"
        },
        {
          "indexed": true,
          "internalType": "address",
          "name": "buyer",
          "type": "address"
        },
        {
          "indexed": false,
          "internalType": "address",
          "name": "seller",
          "type": "address"
        },
        {
          "indexed": false,
          "internalType": "address",
          "name": "currency",
          "type": "address"
        },
        {
          "indexed": false,
          "internalType": "uint256",
          "name": "price",
          "type": "uint256"
        },
        {
          "indexed": false,
          "internalType": "address",
          "name": "royaltyReceiver",
          "type": "address"
        },
        {
          "indexed": false,
          "internalType": "uint256",
          "name": "royaltyAmount",
          "type": "uint256"
        }
      ],
      "name": "Purchased",
      "type": "event"
    },
    {
      "inputs": [
        {
          "internalType": "address",
          "name": "nft",
          "type": "address"
        },
        {
          "internalType": "uint256",
          "name": "tokenId",
          "type": "uint256"
        }
      ],
      "name": "buy",
      "outputs": [],
      "stateMutability": "payable",
      "type": "function"
    },
    {
      "inputs": [
        {
          "internalType": "address",
          "name": "nft",
          "type": "address"
        },
        {
          "internalType": "uint256",
          "name": "tokenId",
          "type": "uint256"
        }
      ],
      "name": "cancel",
      "outputs": [],
      "stateMutability": "nonpayable",
      "type": "function"
    },
    {
      "inputs": [
        {
          "internalType": "address",
          "name": "nft",
          "type": "address"
        },
        {
          "internalType": "uint256",
          "name": "tokenId",
          "type": "uint256"
        }
      ],
      "name": "getListing",
      "outputs": [
        {
          "components": [
            {
              "internalType": "address",
              "name": "nft",
              "type": "address"
            },
            {
              "internalType": "uint256",
              "name": "tokenId",
              "type": "uint256"
            },
            {
              "internalType": "address",
              "name": "seller",
              "type": "address"
            },
            {
              "internalType": "address",
              "name": "currency",
              "type": "address"
            },
            {
              "internalType": "uint256",
              "name": "price",
              "type": "uint256"
            },
            {
              "internalType": "bool",
              "name": "active",
              "type": "bool"
            }
          ],
          "internalType": "struct SimpleFixedPriceMarket.Listing",
          "name": "",
          "type": "tuple"
        }
      ],
      "stateMutability": "view",
      "type": "function"
    },
    {
      "inputs": [
        {
          "internalType": "address",
          "name": "nft",
          "type": "address"
        },
        {
          "internalType": "uint256",
          "name": "tokenId",
          "type": "uint256"
        }
      ],
      "name": "getListingKey",
      "outputs": [
        {
          "internalType": "bytes32",
          "name": "",
          "type": "bytes32"
        }
      ],
      "stateMutability": "pure",
      "type": "function"
    },
    {
      "inputs": [
        {
          "internalType": "address",
          "name": "nft",
          "type": "address"
        },
        {
          "internalType": "uint256",
          "name": "tokenId",
          "type": "uint256"
        },
        {
          "internalType": "address",
          "name": "currency",
          "type": "address"
        },
        {
          "internalType": "uint256",
          "name": "price",
          "type": "uint256"
        }
      ],
      "name": "list",
      "outputs": [],
      "stateMutability": "nonpayable",
      "type": "function"
    },
    {
      "inputs": [
        {
          "internalType": "bytes4",
          "name": "interfaceId",
          "type": "bytes4"
        }
      ],
      "name": "supportsInterface",
      "outputs": [
        {
          "internalType": "bool",
          "name": "",
          "type": "bool"
        }
      ],
      "stateMutability": "view",
      "type": "function"
    },
    {
      "inputs": [
        {
          "internalType": "address",
          "name": "nft",
          "type": "address"
        },
        {
          "internalType": "uint256",
          "name": "tokenId",
          "type": "uint256"
        },
        {
          "internalType": "address",
          "name": "newCurrency",
          "type": "address"
        },
        {
          "internalType": "uint256",
          "name": "newPrice",
          "type": "uint256"
        }
      ],
      "name": "update",
      "outputs": [],
      "stateMutability": "nonpayable",
      "type": "function"
    }
  ],
  "transactionHash": "0xa1ea72ba93b0dc97e9d9b32936f036e886a299ae0644d0c2121ad0c66e01cd17",
  "args": [],
  "numDeployments": 1,
  "solcInputHash": "2143ade6ada2c16d7f70dd634d97d6f4",
  "bytecode": "0x608060405234801561001057600080fd5b5060016000556114f0806100256000396000f3fe6080604052600436106100705760003560e01c806388700d1c1161004e57806388700d1c146100fa57806398590ef914610173578063cce7ec1314610193578063ea8cdb1f146101a657600080fd5b806301ffc9a71461007557806330f0d2cb146100aa5780637d1b0a44146100cc575b600080fd5b34801561008157600080fd5b50610095610090366004611326565b6101c6565b60405190151581526020015b60405180910390f35b3480156100b657600080fd5b506100ca6100c5366004611365565b6101e3565b005b3480156100d857600080fd5b506100ec6100e73660046113ad565b610326565b6040519081526020016100a1565b34801561010657600080fd5b5061011a6101153660046113ad565b61036d565b6040516100a1919081516001600160a01b03908116825260208084015190830152604080840151821690830152606080840151909116908201526080808301519082015260a09182015115159181019190915260c00190565b34801561017f57600080fd5b506100ca61018e3660046113ad565b61041f565b6100ca6101a13660046113ad565b610533565b3480156101b257600080fd5b506100ca6101c1366004611365565b610cbb565b60006301ffc9a760e01b6001600160e01b03198316145b92915050565b60006101ef8585610326565b600081815260016020526040902060058101549192509060ff1661022e5760405162461bcd60e51b8152600401610225906113d9565b60405180910390fd5b60028101546001600160a01b031633146102775760405162461bcd60e51b815260206004820152600a6024820152692737ba1039b2b63632b960b11b6044820152606401610225565b600083116102b75760405162461bcd60e51b815260206004820152600d60248201526c496e76616c696420707269636560981b6044820152606401610225565b6003810180546001600160a01b0319166001600160a01b038681169182179092556004830185905560408051868152602081019290925287928916917f3199bfdff711ec1ab8ab8449dc3b8d3fa30a59861a734a9d26f7b1a38162df75910160405180910390a3505050505050565b6040516bffffffffffffffffffffffff19606084901b1660208201526034810182905260009060540160405160208183030381529060405280519060200120905092915050565b6040805160c081018252600080825260208201819052918101829052606081018290526080810182905260a0810191909152600160006103ad8585610326565b81526020808201929092526040908101600020815160c08101835281546001600160a01b0390811682526001830154948201949094526002820154841692810192909252600381015490921660608201526004820154608082015260059091015460ff16151560a08201529392505050565b600061042b8383610326565b600081815260016020526040902060058101549192509060ff166104615760405162461bcd60e51b8152600401610225906113d9565b60028101546001600160a01b031633146104aa5760405162461bcd60e51b815260206004820152600a6024820152692737ba1039b2b63632b960b11b6044820152606401610225565b600082815260016020819052604080832080546001600160a01b0319908116825592810184905560028101805484169055600381018054909316909255600482018390556005909101805460ff191690555184916001600160a01b038716917f3267ca70878aeda07084f851ec813390240ed2e92e29d57bf4b46f569293d85f9190a350505050565b61053b610fe4565b60006105478383610326565b600081815260016020818152604092839020835160c08101855281546001600160a01b03908116825293820154928101929092526002810154831693820193909352600383015490911660608201526004820154608082015260059091015460ff16151560a08201819052919250906105d25760405162461bcd60e51b8152600401610225906113d9565b60408101516001600160a01b031661061e5760405162461bcd60e51b815260206004820152600f60248201526e496e76616c6964206c697374696e6760881b6044820152606401610225565b336001600160a01b031681604001516001600160a01b0316036106775760405162461bcd60e51b815260206004820152601160248201527053656c6c65722063616e6e6f742062757960781b6044820152606401610225565b6040516331a9108f60e11b8152600481018490526000906001600160a01b03861690636352211e90602401602060405180830381865afa1580156106bf573d6000803e3d6000fd5b505050506040513d601f19601f820116820180604052508101906106e391906113fd565b905081604001516001600160a01b0316816001600160a01b03161461074a5760405162461bcd60e51b815260206004820152601b60248201527f53656c6c6572206e6f206c6f6e676572206f776e7320746f6b656e00000000006044820152606401610225565b60405163020604bf60e21b81526004810185905230906001600160a01b0387169063081812fc90602401602060405180830381865afa158015610791573d6000803e3d6000fd5b505050506040513d601f19601f820116820180604052508101906107b591906113fd565b6001600160a01b03161480610835575060405163e985e9c560e01b81526001600160a01b03828116600483015230602483015286169063e985e9c590604401602060405180830381865afa158015610811573d6000803e3d6000fd5b505050506040513d601f19601f82011682018060405250810190610835919061141a565b6108775760405162461bcd60e51b815260206004820152601360248201527213585c9ad95d081b9bdd08185c1c1c9bdd9959606a1b6044820152606401610225565b6000806108898787866080015161100e565b606086015191935091506001600160a01b0316610b095783608001513410156108e75760405162461bcd60e51b815260206004820152601060248201526f092dce6eaccccd2c6d2cadce8408aa8960831b6044820152606401610225565b6000811180156108ff57506001600160a01b03821615155b156109a9576000826001600160a01b03168260405160006040518083038185875af1925050503d8060008114610951576040519150601f19603f3d011682016040523d82523d6000602084013e610956565b606091505b50509050806109a75760405162461bcd60e51b815260206004820152601760248201527f526f79616c7479207472616e73666572206661696c65640000000000000000006044820152606401610225565b505b60008185608001516109bb919061143c565b9050600085604001516001600160a01b03168260405160006040518083038185875af1925050503d8060008114610a0e576040519150601f19603f3d011682016040523d82523d6000602084013e610a13565b606091505b5050905080610a5d5760405162461bcd60e51b815260206004820152601660248201527514d95b1b195c881d1c985b9cd9995c8819985a5b195960521b6044820152606401610225565b6000866080015134610a6f919061143c565b90508015610b0157604051600090339083908381818185875af1925050503d8060008114610ab9576040519150601f19603f3d011682016040523d82523d6000602084013e610abe565b606091505b5050905080610aff5760405162461bcd60e51b815260206004820152600d60248201526c1499599d5b990819985a5b1959609a1b6044820152606401610225565b505b505050610b77565b600081118015610b2157506001600160a01b03821615155b15610b40576060840151610b40906001600160a01b0316338484611124565b6000818560800151610b52919061143c565b60408601516060870151919250610b75916001600160a01b031690339084611124565b505b6040848101519051632142170760e11b81526001600160a01b03918216600482015233602482015260448101889052908816906342842e0e90606401600060405180830381600087803b158015610bcd57600080fd5b505af1158015610be1573d6000803e3d6000fd5b505050600086815260016020818152604080842080546001600160a01b031990811682559381018590556002810180548516905560038101805490941690935560048301939093556005909101805460ff19169055868201516060808901516080808b015186516001600160a01b03958616815292851695830195909552948101939093528682169083015291810184905233925088918a16907f0b8205161262396a4ea169ec2bd14ff7d076f69f9317d8bb3735ad8c4fa14d029060a00160405180910390a45050505050610cb76001600055565b5050565b60008111610cfb5760405162461bcd60e51b815260206004820152600d60248201526c496e76616c696420707269636560981b6044820152606401610225565b6040516331a9108f60e11b8152600481018490526000906001600160a01b03861690636352211e90602401602060405180830381865afa158015610d43573d6000803e3d6000fd5b505050506040513d601f19601f82011682018060405250810190610d6791906113fd565b90506001600160a01b0381163314610db35760405162461bcd60e51b815260206004820152600f60248201526e2737ba103a37b5b2b71037bbb732b960891b6044820152606401610225565b60405163020604bf60e21b81526004810185905230906001600160a01b0387169063081812fc90602401602060405180830381865afa158015610dfa573d6000803e3d6000fd5b505050506040513d601f19601f82011682018060405250810190610e1e91906113fd565b6001600160a01b03161480610e9e575060405163e985e9c560e01b81526001600160a01b03828116600483015230602483015286169063e985e9c590604401602060405180830381865afa158015610e7a573d6000803e3d6000fd5b505050506040513d601f19601f82011682018060405250810190610e9e919061141a565b610ee05760405162461bcd60e51b815260206004820152601360248201527213585c9ad95d081b9bdd08185c1c1c9bdd9959606a1b6044820152606401610225565b6000610eec8686610326565b6040805160c0810182526001600160a01b0389811680835260208084018b8152338587018181528c861660608801818152608089018e8152600160a08b0181815260008e8152828a528d90209b518c546001600160a01b0319908116918d16919091178d559751918c0191909155935160028b0180548816918b16919091179055905160038a0180549096169816979097179093559451600487015593516005909501805460ff1916951515959095179094558451938452830188905293945092889290917f462ae7fe8ebe6dca41694814c3bef6023e5166a98d66314d9bedef1a9e5a561a910160405180910390a4505050505050565b60026000540361100757604051633ee5aeb560e01b815260040160405180910390fd5b6002600055565b6040516301ffc9a760e01b815263152a902d60e11b600482015260009081906001600160a01b038616906301ffc9a790602401602060405180830381865afa92505050801561107a575060408051601f3d908101601f191682019092526110779181019061141a565b60015b6110895750600090508061111c565b80156111135760405163152a902d60e11b815260048101869052602481018590526001600160a01b03871690632a55205a906044016040805180830381865afa9250505080156110f6575060408051601f3d908101601f191682019092526110f39181019061145d565b60015b61110757600080925092505061111c565b909350915061111c9050565b60008092509250505b935093915050565b604080516001600160a01b0385811660248301528416604482015260648082018490528251808303909101815260849091019091526020810180516001600160e01b03166323b872dd60e01b17905261117e908590611184565b50505050565b60006111996001600160a01b038416836111ec565b905080516000141580156111be5750808060200190518101906111bc919061141a565b155b156111e757604051635274afe760e01b81526001600160a01b0384166004820152602401610225565b505050565b60606111fa83836000611201565b9392505050565b6060814710156112265760405163cd78605960e01b8152306004820152602401610225565b600080856001600160a01b03168486604051611242919061148b565b60006040518083038185875af1925050503d806000811461127f576040519150601f19603f3d011682016040523d82523d6000602084013e611284565b606091505b509150915061129486838361129e565b9695505050505050565b6060826112b3576112ae826112fa565b6111fa565b81511580156112ca57506001600160a01b0384163b155b156112f357604051639996b31560e01b81526001600160a01b0385166004820152602401610225565b50806111fa565b80511561130a5780518082602001fd5b604051630a12f52160e11b815260040160405180910390fd5b50565b60006020828403121561133857600080fd5b81356001600160e01b0319811681146111fa57600080fd5b6001600160a01b038116811461132357600080fd5b6000806000806080858703121561137b57600080fd5b843561138681611350565b935060208501359250604085013561139d81611350565b9396929550929360600135925050565b600080604083850312156113c057600080fd5b82356113cb81611350565b946020939093013593505050565b6020808252600a9082015269139bdd081b1a5cdd195960b21b604082015260600190565b60006020828403121561140f57600080fd5b81516111fa81611350565b60006020828403121561142c57600080fd5b815180151581146111fa57600080fd5b818103818111156101dd57634e487b7160e01b600052601160045260246000fd5b6000806040838503121561147057600080fd5b825161147b81611350565b6020939093015192949293505050565b6000825160005b818110156114ac5760208186018101518583015201611492565b50600092019182525091905056fea2646970667358221220fbe7cf6717df87b34c6d025ae0c64c269809b488cc07cb2ed3fc6432894d91d764736f6c63430008140033",
  "devdoc": {
    "details": " -  NFT/ -  ETH  ERC20  -  NFT  ERC-2981",
    "errors": {
      "AddressEmptyCode(address)": [
        {
          "details": "There's no code at `target` (it is not a contract)."
        }
      ],
      "AddressInsufficientBalance(address)": [
        {
          "details": "The ETH balance of the account is not enough to perform the operation."
        }
      ],
      "FailedInnerCall()": [
        {
          "details": "A call to an address target failed. The target may have reverted."
        }
      ],
      "ReentrancyGuardReentrantCall()": [
        {
          "details": "Unauthorized reentrant call."
        }
      ],
      "SafeERC20FailedOperation(address)": [
        {
          "details": "An operation with an ERC20 token failed."
        }
      ]
    },
    "kind": "dev",
    "methods": {
      "buy(address,uint256)": {
        "details": " -  -  NFT  ERC-2981 -  -  NFT "
      },
      "cancel(address,uint256)": {
        "details": ""
      },
      "list(address,uint256,address,uint256)": {
        "details": " NFT - msg.sender  operatorsetApprovalForAll  approve - price > 0"
      },
      "supportsInterface(bytes4)": {
        "details": "See {IERC165-supportsInterface}."
      },
      "update(address,uint256,address,uint256)": {
        "details": ""
      }
    },
    "title": "SimpleFixedPriceMarket",
    "version": 1
  },
  "userdoc": {
    "kind": "user",
    "methods": {},
    "version": 1
  },
  "storageLayout": {
    "storage": [
      {
        "astId": 804,
        "contract": "contracts/SimpleFixedPriceMarket.sol:SimpleFixedPriceMarket",
        "label": "_status",
        "offset": 0,
        "slot": "0",
        "type": "t_uint256"
      },
      {
        "astId": 933,
        "contract": "contracts/SimpleFixedPriceMarket.sol:SimpleFixedPriceMarket",
        "label": "listings",
        "offset": 0,
        "slot": "1",
        "type": "t_mapping(t_bytes32,t_struct(Listing)928_storage)"
      }
    ],
    "types": {
      "t_address": {
        "encoding": "inplace",
        "label": "address",
        "numberOfBytes": "20"
      },
      "t_bool": {
        "encoding": "inplace",
        "label": "bool",
        "numberOfBytes": "1"
      },
      "t_bytes32": {
        "encoding": "inplace",
        "label": "bytes32",
        "numberOfBytes": "32"
      },
      "t_mapping(t_bytes32,t_struct(Listing)928_storage)": {
        "encoding": "mapping",
        "key": "t_bytes32",
        "label": "mapping(bytes32 => struct SimpleFixedPriceMarket.Listing)",
        "numberOfBytes": "32",
        "value": "t_struct(Listing)928_storage"
      },
      "t_struct(Listing)928_storage": {
        "encoding": "inplace",
        "label": "struct SimpleFixedPriceMarket.Listing",
        "members": [
          {
            "astId": 917,
            "contract": "contracts/SimpleFixedPriceMarket.sol:SimpleFixedPriceMarket",
            "label": "nft",
            "offset": 0,
            "slot": "0",
            "type": "t_address"
          },
          {
            "astId": 919,
            "contract": "contracts/SimpleFixedPriceMarket.sol:SimpleFixedPriceMarket",
            "label": "tokenId",
            "offset": 0,
            "slot": "1",
            "type": "t_uint256"
          },
          {
            "astId": 921,
            "contract": "contracts/SimpleFixedPriceMarket.sol:SimpleFixedPriceMarket",
            "label": "seller",
            "offset": 0,
            "slot": "2",
            "type": "t_address"
          },
          {
            "astId": 923,
            "contract": "contracts/SimpleFixedPriceMarket.sol:SimpleFixedPriceMarket",
            "label": "currency",
            "offset": 0,
            "slot": "3",
            "type": "t_address"
          },
          {
            "astId": 925,
            "contract": "contracts/SimpleFixedPriceMarket.sol:SimpleFixedPriceMarket",
            "label": "price",
            "offset": 0,
            "slot": "4",
            "type": "t_uint256"
          },
          {
            "astId": 927,
            "contract": "contracts/SimpleFixedPriceMarket.sol:SimpleFixedPriceMarket",
            "label": "active",
            "offset": 0,
            "slot": "5",
            "type": "t_bool"
          }
        ],
        "numberOfBytes": "192"
      },
      "t_uint256": {
        "encoding": "inplace",
        "label": "uint256",
        "numberOfBytes": "32"
      }
    }
  }
}